:0C0000000C945A000C9400000C940000BA
:10000C000C9400000C9400000C9400000C94000064
:10001C000C9400000C9400000C9400000C94000054
:10002C000C9400000C9400000C9400000C94000044
:10003C000C9420010C9423010C9400000C940000EF
:10004C000C9400000C9400000C9400000C94000024
:10005C000C9400000C9400000C9400000C94000014
:10006C000C9400000C9400000C9400000C94000004
:10007C000C9400000C9400000C9400000C940000F4
:10008C001027E80364000A000100001000011000B2
:10009C000100253033640025347825347800456E12
:1000AC006420447269766500F894EE27ECBBF1E0AD
:1000BC00F5BFE5BFE0936C008DE0A2E0BB27ED93AC
:1000CC008A95E9F780E090E1A0E0B1E0ED9301972B
:1000DC00E9F78BBFEFEFEDBFE0E1EEBFC0E0D5E09D
:1000EC000C943D02EAB3EF6FEABBE0916400EF6061
:1000FC00E09364000895B6D4E460B9D4ED7FB7D42E
:10010C00BBD4B3C1AFD4EB7FB2D4ED7FB0D4B4D4F5
:10011C00ACC11A931A2FEFDFA1E0B0E03FD6A5C116
:10012C001A930A938D01D801EC91E03029F0AC912F
:10013C00F0DF0F5F1F4FF7CF45C01A930A931A2FAA
:10014C000A81A0E40A02F001E10FE068AE2FDADFC9
:10015C001981088123960895A1E09ED40895A8E3FF
:10016C009BD4A8E399D4A8E397D4AEE095D4A6E0A9
:10017C0093D4F2DF0895EAEAE0938B00EAE1E0938E
:10018C008A00EFE0E0938700E0EAE0938600E8E085
:10019C00E2B9ECE9E0938100EFE3E093800008958D
:1001AC001A930A938D01F801AEE0B0E0B6D5E05693
:1001BC00F04FA1D5E0938700AEE00A02F001E056C3
:1001CC00E09386000991199108951A931A2F809B38
:1001DC00FECF66D4E2E0EEBD8099FECFE8E0EEBD46
:1001EC0064D46AD442C11A931A2F819BFECF58D47F
:1001FC00E2E0EEBD8199FECFE8E0EEBD6AD45CD4BE
:10020C0034C11A931A2F829BFECF4AD4E2E0EEBD82
:10021C008299FECFE8E0EEBD63D44ED426C1EFEF59
:10022C00E2B9E7BBE0E0E1BB0895E3E033C0EAE408
:10023C00E3BF0895C598C69818956A937A93AA93C4
:10024C00BA93EA93FA93EFB7EA93C59AC69AA0E0E9
:10025C00B5E08DD5EF5FFF4F6F4F7F4F8DD5E99197
:10026C00EFBFF991E991B991A9917991699118959B
:10027C00EBEE01C0E2EDE1BF08951C9A1D981E9AA9
:10028C001F9808951C981D9A1E981F9A0895C5983A
:10029C00C698E0E0E7BF0895BA93AA93229711D5C8
:1002AC004A855B85E885F9853196EE83FF831FD4FB
:1002BC000D911C914F5F5F4FE885F985E417F507A9
:1002CC002CF01ED450D5E017F10708F001C0F2CF86
:1002DC00EE81FF813197EE83FF83EA85FB85AE814A
:1002EC00BF81AE17BF072CF013D43DD50E171F07D7
:1002FC0008F001C0EDCF15D454F402D42D913C91EB
:10030C00FA0114D40F0104D418D42083318309D4F6
:10031C008CF2EDD32D913C91EA85FB8507D40F012E
:10032C00F7D30BD420833183EE81FF81D1D42E9669
:10033C000895C7D48D012E813F814885598520179A
:10034C003107ACF4229701D4D801A6DFE883F983F6
:10035C00FCD3AC81BD811197ECDF5A934A93EA81AF
:10036C00FB813196FA93EA93D801E3DF2296B0D45D
:10037C002A9608951A931A2FE8E0F5E0EBD3B0D340
:10038C00F2D373C01A931A2FECE1F5E0E3D3A1D3A7
:10039C00EAD36BC01A931A2FE2E1F5E0DBD385D3D5
:1003AC00E2D363C01A9310E010E0153058F4E0D398
:1003BC001ADFE5D30ADFE3D324DFAAE0B0E0EED402
:1003CC001F5FF3CFA2E0D6DF3F01A2E0DBDF5F01CE
:1003DC00A1E0E0DF4F01E0E0EA93A1E0D4D3F40127
:1003EC00DCD3A5E0D0D3F501D8D3A9E0CCD3F3016D
:1003FC00D4D3AEE0A2DEE52DF0E0309711F4A1E409
:10040C0019C0E130A0E0FA0711F4A2E413C0E23005
:10041C00A0E0FA0711F4A3E40DC0E330A0E0FA0762
:10042C0011F4A4E407C0E430A0E0FA0711F4A5E449
:10043C0001C0AAE56EDEE0E0EA93AFE07EDEA42D1B
:10044C0068DEE1E0EA93A0E078DEB3D3E3EAF0E023
:10045C00FA93EA93B3D354D498D4B0D396D488E017
:10046C00B7D22C96A0E3B5E05BDE19910895789491
:10047C00D6DE81DE37DE73DED8DED9DEE0E0EFBD1E
:10048C00E8E0EEBDF5DE66247724AA24BB2488249C
:10049C009924CC24DD24E0E0E0932605E0932705A5
:1004AC00E0932805E0932905E0930005E09301050E
:1004BC00E0930205E09303058AD31B98C59AC69A6C
:1004CC00EBEEE1BFDADEE2E0E0932A0555244424AA
:1004DC00E0E0E0932A056301A0922605B09227057F
:1004EC0080922805909229055DDF8614970418F4F4
:1004FC00E1E0E0932A05552011F469D313C0E09193
:10050C000405F0910505609106057091070542D42C
:10051C0049F454D3E0930405F09305056093060564
:10052C0070930705A0910005B0910105809102051B
:10053C0090910305A131EBEEBE07E9E08E07E0E0F8
:10054C009E0710F0E2E05E2EE2E0E515B1F4E2E386
:10055C004E2E93DE46D345D344D399DEFDDD29D30D
:10056C00EAEAF0E0FA93EA9380E032D22496A0E330
:10057C00B5E0D6DDA0E5B3ECD7C0E6E0F0E0AE1612
:10058C00BF0630F4A0912605B09127051B9708F003
:10059C0010C0E2E432D318F4A4E1B0E002C0ACEE37
:1005AC00BFEFFEDD34D3ACE2B1E0F8D3E1E05E2E78
:1005BC00BCC0F6013197E615F705C8F4F601319683
:1005CC006E167F06A0F429D33197EA15FB0578F453
:1005DC0024D33196AE16BF0650F424D33197E815C8
:1005EC00F90528F41FD331968E169F0608F012C019
:1005FC00E3E503D330F4AEE1B0E019D3ACEEBFEFDA
:10060C0005C0A2EEBFEF13D3A4E1B0E0C9DDA4EFA7
:10061C00B1E08AC05520C9F130DE2ADE0CD3A9F432
:10062C00E2E50ED3E815F90510F4ADE208C0EEE1F1
:10063C00F0E0E815F90510F4A3E201C0AFE0B0E07A
:10064C00AFDDA0E9B1E0AAD31CC0E130A0E0FA070D
:10065C00B9F4ECE4F5D2E615F70518F4A3EDBFEF09
:10066C000AC0EEE1F0E0E615F70518F4ADEDBFEFCA
:10067C0002C0A1EFBFEF94DDA0E9B1E08FD301C0C0
:10068C00E5D25524A8EEB3E04FC0E5D210F0E8D285
:10069C0008F40BC0E6E44E2EA0E0B0E081DDA4E649
:1006AC00B0E07CD3EADDE4DD40C0C5D2D9F4ECE6A1
:1006BC004E2EE6E0F0E06E167F0648F4D6D2A3ED9F
:1006CC00BFEF6EDDA4D2ACE2B1E068D30AC0C3D2F6
:1006DC0040F4CFD2E619F709A5E0B0E016D3DF015C
:1006EC005FDD20C0E130A0E0FA07D9F4E2E74E2E3E
:1006FC00E6E0F0E08E169F0648F4B7D2ADE2B0E02B
:10070C004FDD85D2ACE2B1E049D30AC0A9D240F4A6
:10071C00B0D2E819F909ABEFBFEFF7D2DF0140DD3A
:10072C0001C094D2A4E6B0E039D3D2CEFFCFC9D267
:10073C009D015E81129617D33097E1F0D901149682
:10074C0012D38F01309759F00230E0E01E0760F0B1
:10075C00F80131978F01D9011496ED93FC93D901CF
:10076C0012968CD231975083D901FDD2FF230AF017
:10077C0085D205C0D901EFEFFFEFED93FC93A8D222
:10078C0027960895BA93AA9326979BD210E0AC852E
:10079C00BD85E0E0F0E0ED93FC93EA89FB893196AE
:1007AC00EA8BFB8B3197E4912E2FE03009F409C1D1
:1007BC00E12FE03031F4253211F411E001C064D2A4
:1007CC00FFC0E130A1F4253211F45ED2F8C012E082
:1007DC0040E000E02D3211F401E0F2C02B3211F4B4
:1007EC004BE2EEC0203211F440E2EAC002C0E2302B
:1007FC0039F450E013E0203311F40068E1C003C079
:10080C00E33009F0DDC0203310F02A3308F007C0C4
:10081C00AAE05A9F502DE22FE0535E0FD1C0E22F79
:10082C00E33639F438D2E889F989A481AA9339D20C
:10083C00C6C0E33729F42FD23AD2FBD01E2F07C003
:10084C00E03749F428D233D200D11E2F0860026061
:10085C000F7730E038C0E43611F0E93611F404605B
:10086C0002C0E53731F4ECE8F0E0EE83FF8315E0ED
:10087C000CC0E83511F4086003C0E83709F09FC0DC
:10088C00E6E9F0E0EE83FF8314E002FF15C003D22B
:10089C00A889B9891496ED91FD91EA87FB87AB8500
:1008AC00AA2322F424D2EA87FB874DE2403011F0D0
:1008BC001F5F01C00B7F07C0EED1A889B9891496C0
:1008CC0052D2EA87FB8700FD10C0151770F407FFA2
:1008DC0008C002FF04C00B7F242F115001C020E37D
:1008EC0001C020E2D1D15150F0CF312F01FF16C001
:1008FC00303099F003FF06C0EE81FF812591EE8325
:10090C00FF8305C0AE81BF812D91AE83BF83BCD167
:10091C00503009F051503150EBCF48C020E3EE81FC
:10092C00FF812FD2E887F987EE81FF813296EE8323
:10093C00FF83E885F985AA85BB85AE17BF0750F004
:10094C002F5FA885B985EA85FB85EA1BFB0BEA8737
:10095C00FB87EFCF2A3328F003FF02C0295F01C0C9
:10096C00295D04FD19C0213320F4A885B9851197A0
:10097C0009F409C0531710F000FF01C011C020E2A8
:10098C0007FF0AC020E3006102FF06C00B7F4A93F9
:10099C0088D1503009F0515077D1503009F0515076
:1009AC003150A885B985129708F0B8CF00FF07C061
:1009BC00503029F05150E0E2EA9373D1F9CF10E0B6
:1009CC00ECCEAC85BD85ED91FD9182D164960895F8
:1009DC00FF92F82E269775D1FE0181D14685578559
:1009EC00042E052A19F4EFEFFFEF1FC0DE01189655
:1009FC007AD18D0148875987E0E0EA87EB87DE01E1
:100A0C001C9671D1ED91FD91FA93EA931A930A9386
:100A1C00EDE9F3E0FA93EA93DE011C96B3DE9F0155
:100A2C00A885B985E0E0EC93F90152D12C96FF90A2
:100A3C000895BA93AA93A991B991EE27FF276D91C6
:100A4C00662311F03196FBCF0895BA93AA93AA2787
:100A5C00BB27E991F9910590002011F01196FBCF7D
:100A6C00FD0108951A931A2FE09165000895E09303
:100A7C006500E09165000895E160E093650086EF04
:100A8C008A95F1F71BBB86EF8A95F1F7E09165002B
:100A9C00EE7FE0936500089535DBA2E0B0E07EC107
:100AAC00E0E0F0E0FDBDECBD0895E12FA2E1B5E082
:100ABC00F0E0EE0FFF1F0895EA0FFB1FBF01ECB52E
:100ACC00FDB5DF01E4E7F0E02DD1DB01ED93FC9304
:100ADC00E7CFE12FACE1B5E0F0E0EE0FFF1F08959A
:100AEC00E12FA8E0B5E0F0E0EE0FFF1F0895EA85D6
:100AFC00FB85AC85BD85EE0FFF1FAE0FBF1F0895A4
:100B0C00FA01AC85BD85EE0FFF1FAE0FBF1F089518
:100B1C00EE81FF81AC85BD85EE0FFF1FAE0FBF1FB1
:100B2C000895EE81FF814E175F070895AC85BD8552
:100B3C00EE0FFF1FEA0FFB1F0895ED91FD91D00101
:100B4C00ED93FC93EE81FF81F1CF5A934A933A9344
:100B5C002A930895FA93EA93E0E0F0E0FA93EA938B
:100B6C00A4E0B0E0E6CBAE0FBF1FED91FD91089570
:100B7C00C09A81E38A95F1F7C098A12F0895AAE055
:100B8C00B0E00CD1F5CFD9DAEBE2F5E0FA93EA93C9
:100B9C00EEE9F0E0FA93EA93089566277727F5D00B
:100BAC0084E016DF2896ABE2B5E0BADAE0E0EA932F
:100BBC000895E0E3F5E0FA93EA930895E0910005D7
:100BCC00F091010560910205709103050895E0E034
:100BDC00E0930405E0930505E0930605E093070513
:100BEC000895A9E1B0E0DCDAA8ECB0E0D7D0A7EE2C
:100BFC00BFEFD6DAA8ECB0E0D1C04E2E43DB3ADB27
:100C0C00E0912805F0912905EC15FD050895A0E962
:100C1C00B1E0C4D0A0E0B0E0C3CAE0912605F091E9
:100C2C0027050895E0912805F09129050895B8DA73
:100C3C00A0E9B1E0B3C0E0912A05F0E03097089547
:100C4C004E2E1BDB15DBE6E4F0E0089516DB12DB21
:100C5C00A0E0B0E0A5CAEBE0F0E06E167F060895C8
:100C6C00EBE0F0E08E169F060895E1E05E2E0ADBC5
:100C7C00FFCA03DBFDDAEBE0F0E00895ED91FD91A6
:100C8C003196FE93EE9308952A93AD85BE85EF853C
:100C9C00F88909950895E889F9893497E88BF98BD7
:100CAC000895AD85BE85EF85F88909950895A889C5
:100CBC00B9891496ED91FD91EE83FF83AE81BF81CE
:100CCC0008955A934A933A932A931A930A93089540
:100CDC005D814C813B812A81198108810895002412
:100CEC00EF0DF01D08950024AF0DB01D0895F19582
:100CFC00E195F0400895EF2FFF27E7FDFFEF0895F2
:100D0C00E62FF72F60E070E00895FA9FF02DEB9F2F
:100D1C00F00DEA9FE02DF10D089517D0F6DF0EF4DB
:100D2C00E6DF08950024112490E1AA0FBB1F001CDC
:100D3C00111C0E1A1F0A18F40E0E1F1E01C0A16002
:100D4C009A9599F7FD01D0010895E894F7FF02C038
:100D5C00CEDF6894B7FF06C0B195A195B04000F8FE
:100D6C00039400FA0895ED91FC9111970895ED917B
:100D7C00FD916D917D9108957E936E93FE93EE930C
:100D8C0008950590F491E02D08957A936A93FA935F
:100D9C00EA9308953097604070400895109639F0AA
:100DAC00A89586E69EE00197F1F71197C9F708958B
:00000001FF
